{
  "contractName": "Data",
  "abi": [
    {
      "inputs": [
        {
          "internalType": "address",
          "name": "",
          "type": "address"
        },
        {
          "internalType": "uint256",
          "name": "",
          "type": "uint256"
        }
      ],
      "name": "database",
      "outputs": [
        {
          "internalType": "string",
          "name": "title",
          "type": "string"
        },
        {
          "internalType": "string",
          "name": "_url",
          "type": "string"
        }
      ],
      "stateMutability": "view",
      "type": "function",
      "constant": true
    },
    {
      "inputs": [
        {
          "internalType": "address",
          "name": "_user",
          "type": "address"
        },
        {
          "internalType": "string",
          "name": "_title",
          "type": "string"
        },
        {
          "internalType": "string",
          "name": "_url",
          "type": "string"
        }
      ],
      "name": "uploadNFT",
      "outputs": [],
      "stateMutability": "nonpayable",
      "type": "function"
    },
    {
      "inputs": [
        {
          "internalType": "address",
          "name": "_user",
          "type": "address"
        }
      ],
      "name": "getDatabaseLength",
      "outputs": [
        {
          "internalType": "uint256",
          "name": "",
          "type": "uint256"
        }
      ],
      "stateMutability": "view",
      "type": "function",
      "constant": true
    }
  ],
  "bytecode": "0x608060405234801561001057600080fd5b506109ee806100206000396000f3fe608060405234801561001057600080fd5b50600436106100415760003560e01c8063257a802d146100465780632f75b78514610076578063ff4e0406146100a7575b600080fd5b610060600480360381019061005b9190610386565b6100c3565b60405161006d91906103cc565b60405180910390f35b610090600480360381019061008b9190610413565b61010e565b60405161009e9291906104e3565b60405180910390f35b6100c160048036038101906100bc919061064f565b61025f565b005b60008060008373ffffffffffffffffffffffffffffffffffffffff1673ffffffffffffffffffffffffffffffffffffffff168152602001908152602001600020805490509050919050565b6000602052816000526040600020818154811061012a57600080fd5b90600052602060002090600202016000915091505080600001805461014e90610709565b80601f016020809104026020016040519081016040528092919081815260200182805461017a90610709565b80156101c75780601f1061019c576101008083540402835291602001916101c7565b820191906000526020600020905b8154815290600101906020018083116101aa57829003601f168201915b5050505050908060010180546101dc90610709565b80601f016020809104026020016040519081016040528092919081815260200182805461020890610709565b80156102555780601f1061022a57610100808354040283529160200191610255565b820191906000526020600020905b81548152906001019060200180831161023857829003601f168201915b5050505050905082565b600060405180604001604052808481526020018381525090506000808573ffffffffffffffffffffffffffffffffffffffff1673ffffffffffffffffffffffffffffffffffffffff16815260200190815260200160002081908060018154018082558091505060019003906000526020600020906002020160009091909190915060008201518160000190816102f591906108e6565b50602082015181600101908161030b91906108e6565b50505050505050565b6000604051905090565b600080fd5b600080fd5b600073ffffffffffffffffffffffffffffffffffffffff82169050919050565b600061035382610328565b9050919050565b61036381610348565b811461036e57600080fd5b50565b6000813590506103808161035a565b92915050565b60006020828403121561039c5761039b61031e565b5b60006103aa84828501610371565b91505092915050565b6000819050919050565b6103c6816103b3565b82525050565b60006020820190506103e160008301846103bd565b92915050565b6103f0816103b3565b81146103fb57600080fd5b50565b60008135905061040d816103e7565b92915050565b6000806040838503121561042a5761042961031e565b5b600061043885828601610371565b9250506020610449858286016103fe565b9150509250929050565b600081519050919050565b600082825260208201905092915050565b60005b8381101561048d578082015181840152602081019050610472565b60008484015250505050565b6000601f19601f8301169050919050565b60006104b582610453565b6104bf818561045e565b93506104cf81856020860161046f565b6104d881610499565b840191505092915050565b600060408201905081810360008301526104fd81856104aa565b9050818103602083015261051181846104aa565b90509392505050565b600080fd5b600080fd5b7f4e487b7100000000000000000000000000000000000000000000000000000000600052604160045260246000fd5b61055c82610499565b810181811067ffffffffffffffff8211171561057b5761057a610524565b5b80604052505050565b600061058e610314565b905061059a8282610553565b919050565b600067ffffffffffffffff8211156105ba576105b9610524565b5b6105c382610499565b9050602081019050919050565b82818337600083830152505050565b60006105f26105ed8461059f565b610584565b90508281526020810184848401111561060e5761060d61051f565b5b6106198482856105d0565b509392505050565b600082601f8301126106365761063561051a565b5b81356106468482602086016105df565b91505092915050565b6000806000606084860312156106685761066761031e565b5b600061067686828701610371565b935050602084013567ffffffffffffffff81111561069757610696610323565b5b6106a386828701610621565b925050604084013567ffffffffffffffff8111156106c4576106c3610323565b5b6106d086828701610621565b9150509250925092565b7f4e487b7100000000000000000000000000000000000000000000000000000000600052602260045260246000fd5b6000600282049050600182168061072157607f821691505b602082108103610734576107336106da565b5b50919050565b60008190508160005260206000209050919050565b60006020601f8301049050919050565b600082821b905092915050565b60006008830261079c7fffffffffffffffffffffffffffffffffffffffffffffffffffffffffffffffff8261075f565b6107a6868361075f565b95508019841693508086168417925050509392505050565b6000819050919050565b60006107e36107de6107d9846103b3565b6107be565b6103b3565b9050919050565b6000819050919050565b6107fd836107c8565b610811610809826107ea565b84845461076c565b825550505050565b600090565b610826610819565b6108318184846107f4565b505050565b5b818110156108555761084a60008261081e565b600181019050610837565b5050565b601f82111561089a5761086b8161073a565b6108748461074f565b81016020851015610883578190505b61089761088f8561074f565b830182610836565b50505b505050565b600082821c905092915050565b60006108bd6000198460080261089f565b1980831691505092915050565b60006108d683836108ac565b9150826002028217905092915050565b6108ef82610453565b67ffffffffffffffff81111561090857610907610524565b5b6109128254610709565b61091d828285610859565b600060209050601f831160018114610950576000841561093e578287015190505b61094885826108ca565b8655506109b0565b601f19841661095e8661073a565b60005b8281101561098657848901518255600182019150602085019450602081019050610961565b868310156109a3578489015161099f601f8916826108ac565b8355505b6001600288020188555050505b50505050505056fea26469706673582212208352f6e6a60ad2d9f13cd1205e1d8004310c87e7faf3dc8d42fea4bce14b129f64736f6c63430008130033",
  "immutableReferences": {},
  "source": "// SPDX-License-Identifier: MIT\r\n\r\npragma solidity ^0.8.0;\r\n\r\ncontract Data{\r\n    struct NFT{\r\n        string title;\r\n        string _url;\r\n    }    \r\n\r\n    mapping(address=>NFT[]) public database;\r\n\r\n\r\n    function uploadNFT(address _user,string memory _title, string memory _url) public {\r\n        NFT memory nft = NFT(_title,_url);\r\n        database[_user].push(nft);\r\n    }\r\n\r\n    function getDatabaseLength(address _user) public view returns(uint){\r\n        return database[_user].length;\r\n    }\r\n\r\n\r\n}",
  "sourcePath": "C:\\Users\\laksh\\Desktop\\nft minting\\contracts\\Data.sol",
  "compiler": {
    "name": "solc",
    "version": "0.8.19+commit.7dd6d404.Emscripten.clang"
  },
  "schemaVersion": "3.4.13",
  "updatedAt": "2023-06-09T08:32:39.745Z",
  "networkType": "ethereum",
  "devdoc": {
    "kind": "dev",
    "methods": {},
    "version": 1
  },
  "userdoc": {
    "kind": "user",
    "methods": {},
    "version": 1
  }
}